:020000041000EA
:1000000000B5324B212058609868022188439860DF
:10001000D860186158612E4B002199600221596106
:100020000121F02299502B49196001219960352056
:1000300000F044F80222904214D00621196600F024
:1000400034F8196E01211966002018661A6600F04E
:100050002CF8196E196E196E052000F02FF8012189
:100060000842F9D1002199601B49196000215960AB
:100070001A491B48016001219960EB211966A021F2
:10008000196600F012F800219960164914480160C1
:100090000121996001BC002800D000471248134993
:1000A000086003C880F30888084703B5996A0420EC
:1000B0000142FBD001200142F8D103BD02B5186610
:1000C0001866FFF7F2FF186E186E02BD00000240BE
:1000D000000000180000070000035F00212200005C
:1000E000F4000018222000A00001001008ED00E03C
:1000F00000000000000000000000000074B24E7A12
:1001000000200420F7010010C3010010C5010010F9
:10011000C1010010C1010010C1010010C101001097
:10012000C1010010C1010010C1010010C701001081
:10013000C1010010C1010010C9010010CB01001065
:10014000CD010010CD010010CD010010CD01001037
:10015000CD010010CD010010CD010010CD01001027
:10016000CD010010CD010010CD010010CD01001017
:10017000CD010010CD010010CD010010CD01001007
:10018000CD010010CD010010CD010010CD010010F7
:10019000CD010010CD010010CD010010CD010010E7
:1001A000CD010010CD010010CD010010CD010010D7
:1001B000CD010010CD010010CD010010CD010010C7
:1001C00000BE00BE00BE00BE00BE00BE00F04BF888
:1001D000103800BEF2EB8871A81D0010C81D001079
:1001E0003402001090A31AE700202149086006C8D5
:1001F00081F3088810471F48006800282FD10DA4FC
:100200000ECC002902D000F012F8F9E71A491B4A77
:10021000002000E001C19142FCD1194988471949E9
:1002200088471949884700BEFDE701C901C29A42C3
:10023000FBD37047C81D0010C00000203C02002006
:10024000441F00100000042000000420441F001080
:1002500000100420001004200000000070470B482C
:1002600001F002F90047EFF30580C0B270470000CB
:1002700008ED00E0000000D0400200201006002041
:100280009D0D0010E9030010690E00105756000084
:1002900006005250ABB36053871D00100600525049
:1002A000861C0302921D0010060052505422A29D8B
:1002B000981D001005005250DE65F468441F0010C0
:1002C000F8B5C0460448054B10B5834203D0044B33
:1002D000002B00D0984710BD3C0200203C020020BB
:1002E0000000000006480749091A8910CB0F591869
:1002F00010B5491003D0044B002B00D0984710BD17
:100300003C0200203C0200200000000010B5074C19
:100310002378002B09D1FFF7D5FF054B002B02D026
:10032000044800E000BF0123237010BD40030020FB
:1003300000000000E81C0010054B10B5002B03D096
:100340000449054800E000BFFFF7CCFF10BDC046E0
:100350000000000044030020E81C001010B5192024
:1003600000F03CFB094B1B681A6801239340084AC4
:1003700012681168D0221206002904D05361192096
:1003800000F02CFB10BD9361F9E7C046740100201A
:1003900078010020F0B5D0270024104B85B01B68F1
:1003A00001AE1B683F0601930D4B1B681B68736011
:1003B0000C4B1B681B68B360A300F5580134280080
:1003C00000F07CF80123AB4000227B620121280071
:1003D00000F05EF8032CEFD105B0F0BD80010020E5
:1003E000740100207C010020F7B5D025FFF7D2FF73
:1003F0000424FFF7B3FF2D06002317E00122154F59
:10040000154E3B681B689A4033686A611868C117CB
:1004100000F0BEFA01223B681B689A403368AA616B
:100420001868C11700F0B4FA019B013301930B4B1C
:10043000019A1B681B689A42E0DB094A013C136879
:1004400059424B411360FFF789FF002CD4D12000A3
:10045000FEBDC04680010020700100208401002004
:10046000B0030020084B8200D218402310B5146856
:10047000C0006340C02423408024640122431360F1
:10048000024BC018416010BD04C001400040014053
:10049000094B8000C0184B1E9941531E9A41C90058
:1004A000036892001143594080230C225B011140E4
:1004B000184301607047C04604C001400123D022A8
:1004C000834010B51206936205219361FFF7CAFFBE
:1004D00010BD0000EFF3108072B6034A1368002BC2
:1004E000FCD0BFF35F8F70472C0100D0BFF35F8F4C
:1004F0000022024B1A6080F3108870472C0100D054
:10050000CB080722C35C0120114088401840431EDD
:100510009841C0B27047F8B505000C001700FFF70E
:10052000D9FF210006002800FFF7EAFF002803D0CA
:100530002100380000F09AFCE308ED1807231C4066
:10054000063BA3402A78300013432B70FFF7CEFF01
:10055000F8BD0000024B18688007C00F7047C04606
:1005600000C006400021044B044ABFF35F8F02C362
:100570009342FAD17047C046000100D0800100D0FC
:10058000044A1078431CDBB2172B01D81370704754
:100590001023FBE78801002010B504680320030046
:1005A00050434B430338033B2018E31881701978FC
:1005B000002901D11A7010BD4170FBE783680A4819
:1005C00010B5091812181201090159189B185C6816
:1005D0004A680120944205D803D11A680B689A42F0
:1005E00000D80020C0B210BDFFFFFF0F70B50C0097
:1005F0000500080000F0A6F9200000F0ADFA074958
:10060000200000F001FAFFF7BBFF054B2C75C01866
:10061000044B8000A4006860E55070BDF106001036
:1006200040000034A0030020F0B585B00092019393
:100630000CAB1C780DAB1B78070003930568002CEE
:1006400010D1AC7B002C47D0032363432A68033BC3
:10065000D3185A78AA73002A00D1EA7300229A703C
:100660005A701A70214BBA68E3181B01D31800990D
:10067000019A19605A600A9A9A600B9ADA60032309
:1006800063432A68033BD31800229A705A701A7089
:100690006E7B964228D022003100A8686B6898478C
:1006A00000281CD0220031002800FFF775FF6E7370
:1006B000A64211D1009A019B387D00F0EFF9051E8A
:1006C00006D0039B002B03D12100386800F028FBE3
:1006D0000E9B002B00D01D70200005B0F0BD320035
:1006E00021002800FFF758FF2600E0E7FFFFFF0F7B
:1006F0000023F0B58FB00B935F4B8200D4580C9061
:1007000000F02CF902000B006068EFF310810891F3
:1007100072B601680029FCD0BFF35F8F21688C4658
:10072000497B079100295FD054480D18A1682D011D
:100730004D192E686F6830003900801A99410029E0
:1007400048DC01D1002845D10021604600F0DEFAE6
:100750002E686F68AB68079A0A93E368ED689B1888
:10076000013B1B780B931B0203430020236163684A
:10077000BFF35F8F00221A60089B83F310880A9BE7
:10078000934273D00B9B29001802079B18430A9BC6
:100790009847626808900991EFF310830D9372B641
:1007A0001368002BFCD0BFF35F8F099B002B21DA6D
:1007B0002369002B46D00898099932003B00121A91
:1007C0008B419F4202D827D1964225D9012252421D
:1007D000130021E0002532003B000C9800F05EF988
:1007E000002600270A95C2E7079D002600270A95E4
:1007F0002800BCE7089B099A134323D02369002BE8
:1008000020D000F0ABF8089A099B12184B4199428E
:10081000DCD801D19042D9D8002104910131039153
:100820000799019502910A9920000091FFF7FCFEBB
:10083000002263682261BFF35F8F1A600D9B83F310
:1008400010885DE72268D17B002906D003234B4343
:100850001168CB180799033B5970079BD373E26863
:10086000013BD3181A7801321A70E1E7002800D052
:1008700046E70FB0F0BDC046A0030020FFFFFF0F0A
:1008800010B5094C6368002B09D1102120682300A2
:10089000064A00F0E6F903212000FFF7A7FE0A212F
:1008A000034800F079F910BD8C010020BD0500104F
:1008B000B8030020F7B5EFF305823F231A4010007C
:1008C00001921038EFF3108772B6184B1A68002A9D
:1008D000FCD0BFF35F8F012634008440144D154BCC
:1008E0006C631B781A00C240944661460022314274
:1008F0000AD0114E696A8500AE59B1420FD30F4A32
:100900000C49A343AA580B70BFF35F8F002307491C
:100910000B6087F310889A4200D09047F7BD019B87
:1009200007499B005B1819681960EDE7280100D0A2
:10093000004005400E040020BC0300205C030020A2
:10094000D03F054010B50100024A0348FFF7E3FD20
:1009500010BDC046FC1C0010CC030020044B596A9B
:10096000986A5A6A914200D170471100F8E7C04670
:1009700000400540054B5A6A8A42FCD38A4202D1A4
:100980009A6A824200D370475A6AF7E700400540EE
:1009900070B504000D00FFF7E1FF02000B0020001E
:1009A0002900801859418B4202D804D1824202D9D1
:1009B00001204042C117FFF7DDFF70BD10B50028D0
:1009C00006DB054B996A9A6A521A8242FBD310BD24
:1009D0000021FFF7DDFFFAE700400540094B10B5A5
:1009E000984205D8FA239B005843FFF7E7FF10BD54
:1009F000FA2200239200002100F0DAFFFFF7C8FF7F
:100A0000F5E7C0469BC42000F7B504000D00EFF3E6
:100A1000108772B61C4B1A68002AFCD0BFF35F8F98
:100A2000A3001A4E0193002D1BD0200000F056FBAE
:100A3000B0420BD03100200000F058FB0121200013
:100A400000F044FB0123A340114A1360114B019AAB
:100A50009D50BFF35F8F00230B4A136087F310880C
:100A6000F7BD0C4BA2009D500122A2400A49200074
:100A70000B7893430B70310000F058FB29002000E5
:100A800000F024FBE5E7C046280100D0B5080010BF
:100A9000386005405C0300200E040020F0B585B0EE
:100AA0001F0006000192FFF759FF8F4203D847D17C
:100AB000019B834244D9EFF31083039372B6214B19
:100AC0001A68002AFCD0BFF35F8F0125B5401E4B8A
:100AD0001E4C1B7800932B43DBB20293029A1A4BF5
:100AE0001A70019A331D9B0065631A51184AB300AE
:100AF0009F50236A2B420AD10020BFF35F8F00234F
:100B0000104A1360039B83F3108805B0F0BDFFF714
:100B100025FF8F42F0D802D1019B8342ECD8029B83
:100B2000009A01209342E8D01F2302001E40B240E9
:100B3000084B256265631A60034B009A1A70DCE764
:100B40000120E2E7280100D00E040020004005400B
:100B5000BC03002080E200E010B5EFF3108472B611
:100B60000A490B68002BFCD0BFF35F8F0123834041
:100B7000074A0848136202789A430270BFF35F8FF6
:100B800000230B6084F3108810BDC046280100D0FC
:100B9000004005400E040020024BC9188900016086
:100BA0007047C0464000003410B50400FFF7E8FC71
:100BB00001002000FFF7F0FFFF232371BFF35F8FD9
:100BC00010BD10B50400FFF7DBFC01002000FFF7AB
:100BD000E3FFFF23A380BFF35F8F10BD10B5046850
:100BE0000320030050434B430338033B2018E31812
:100BF00081701978002901D11A7010BD4170FBE78E
:100C000070B50600806873680C00150098470028CE
:100C100006D02A0021003000FFF7E0FF200070BD61
:100C2000220029003000FFF7D9FF2C00F6E701224F
:100C3000002330B5047B82734373C47302680320BE
:100C40000133DDB2AC4205D8002360431218033AE9
:100C5000537030BD010059435118033901354D70AF
:100C6000EEE710B5017342608360FFF7E0FF10BD4F
:100C700070B50400081E21D003210B0043432568F2
:100C8000033BEB185A78002A18D000265143033949
:100C900069184D784E7001005E702000FFF7B0FFBC
:100CA000290006002000FFF7E3FF002E06D00028F1
:100CB00005D0020031002000FFF7A2FF70BD300018
:100CC000FCE7F7B5032635004D430368033D0F00ED
:100CD000595D04000192FFF7CBFF019B002B08D068
:100CE000E37B002B04D05E4323689E19033E77709C
:100CF000E7732268002805D0032300214343D3185B
:100D0000033B9970002355196B70FEBD70B5457B90
:100D10000A0029000400FFF7D4FF6073280070BDAB
:100D200070B50400081E07D0637B8B4205D10121FA
:100D30002000FFF7EBFF012070BD03252A004A4386
:100D40002668033AB2189378181EF5D06B43033B1C
:100D5000F3181878884215D15078187000232000B5
:100D6000937053700122FFF7ACFF617B002905D01F
:100D7000002810D002002000FFF742FF6073DAE77E
:100D80000028EBD068430338331858788842F7D1ED
:100D900050785870E2E70800F0E70000234B244A3F
:100DA00070B51A60234A244C1500244B23601800A8
:100DB00091688843FBD1224E224B9E4224D300F0FF
:100DC000DDF8214B2360AB68DB018033FBD140228F
:100DD0001E4B1F489A675A671A67DA661D4B98427E
:100DE00015D31D4C1D4DA168C022280000F046FE01
:100DF000A560FFF7B7FB00F097FAFFF741FD184C2D
:100E0000184B9C420FD370BD08CE9847D4E704001E
:100E100003680834002B03D0FFF7D3FE2000DDE782
:100E2000FFF7C2FEFAE708CC9847E9E700E0004088
:100E3000BFCDFBFE00C0004000F00040FE7F3C0044
:100E40002802002038020020FFFFFF0100F00140CF
:100E5000200200202802002000ED00E00000002019
:100E6000380200203C02002000BEFDE70FB407B5A9
:100E7000074800F0CBFE049B002B07D005A9180003
:100E8000019100F0D1FA034800F0C0FE00BEFDE77A
:100E90002A1D0010381D001010B50148FFF7E6FFAD
:100EA0001E1D0010F0B585B003920A9A05000F00D0
:100EB00000209A4241D80C241A0E1B020292019380
:100EC0000A9A03000299019800F032FB6C43294B07
:100ED0000600E4186368834200D260602B1FDBB217
:100EE0000093C023009A9B012343012A27D8012F96
:100EF00025D103221A603B00A2681A42FCD0039B52
:100F000022685B015340E0221340802252012243B9
:100F10001360009B012B21D9802380229B01234356
:100F200012011A600198002366603200029900F0F5
:100F3000FFFA114BAD00E850012005B0F0BD802252
:100F400012011A600C4BAA00D1580029D7D0586959
:100F500000F0ACFA01300138FDD1D0E7032123685D
:100F60007B400B4013600123BB40A2681342FCD0BE
:100F7000D2E7C046008000406C03002073B50C200F
:100F800000F030FAFFF7E6FA00280AD000232B4AD7
:100F90002B489900013388500A2BFAD1294B536210
:100FA00073BD294CA06700F025FA0122274B1A6077
:100FB000636C012BFCD10322254B1A60A66B012E1A
:100FC000FCD10224310000940623224A224800F07A
:100FD000BDF9009431000523204A214800F0B6F9FC
:100FE000204B214D0093210000220420FFF75AFFDF
:100FF0002B003100009500220520FFF753FF00224F
:101000000F4C1100230000940720FFF74BFF002234
:101010002300110000940820FFF744FF0022094B31
:101020001100009309202300FFF73CFF00220095E8
:101030002B0011000620FFF735FFB1E76C030020FD
:10104000006CDC021BB70000008000403CB0004098
:1010500030B00040002F68590080024000389C1CCE
:1010600000C00240001BB70040597307074B103007
:101070009B688000C150BFF35F8FBFF35F8F00217B
:10108000034B196082F310887047C04600ED00E002
:10109000240100D001228240034B1B681340581EDC
:1010A0008341D8B27047C04600E100E0002904D077
:1010B000034B1860034B18607047034BFBE7C046B7
:1010C00080E200E000E100E080E100E001238340F5
:1010D00010B51800FFF7EAFF10BD0000024B1030FA
:1010E0009B688000C058704700ED00E070B50400B8
:1010F0000D00EFF3108672B60A4A1368002BFCD07D
:10110000BFF35F8F2000FFF7E9FF074B984203D042
:10111000A84201D0FFF7C0FE320029002000FFF7EF
:10112000A5FF70BD240100D0CD010010F0B585B041
:1011300005000191EFF31083029372B6494A1368D8
:10114000002BFCD0BFF35F8F2F00474B10379B68FD
:10115000BA00D458454B9C4268D0019A944200D1C1
:101160007DE0434EA31B2F2B60D82800FFF792FF92
:10117000002103902800FFF7A9FFBFF35F8FFFF75F
:1011800072F80090002803D0874201D0FFF784FE58
:10119000012322009A43130036480C27921B524128
:1011A0005043000D00229E680621B446019E595608
:1011B000B4450FD1002914DA0099002942D1002A40
:1011C0003ED0FF3191712C4991802C4A11781070DA
:1011D000997127E0002925DB79431A00244B5B181D
:1011E000E1E70C204843224A1618B7689F60F77958
:1011F000DF710627F7579F71002F1EDBB688760533
:1012000036158619D01AE02280190005400D120209
:1012100010430C224A439880154B9B18174A1078AC
:101220001170987103992800FFF750FF029A21006E
:101230002800FFF71BFF05B0F0BDBD200002E8E766
:101240000A4CC2E70E4A0F49D21A083A5002400D22
:10125000014399800C4952080A43DA80E2E71C00F6
:10126000E4E7C046240100D000ED00E0CD0100100D
:10127000B4010020AAAA000000BDFFFF0D04002059
:10128000EE01002000F0FFFF00F8FFFFF8B5012598
:1012900004000543FEF7E7FF0200EFF3108672B685
:1012A0001A4B19680029FCD0BFF35F8F1848194BFF
:1012B0002100091A49414B431B0D174992008F68C1
:1012C0005BB2BF58AF420ED1896814488850144AA7
:1012D00011781370A171BFF35F8F00230B4A136065
:1012E00086F31088F8BD02000021062555579D425F
:1012F00007D10C224A43FF2182189171094991803C
:10130000E5E701310C320429EFD1E0E7240100D0F8
:10131000B4010020AAAA000000ED00E0CD010010F9
:101320000D04002000BDFFFF054B064A1360064A6E
:10133000136053609360D36013615361936170478E
:101340008080808000E400E004E400E0F8B5040060
:101350000C2017001E000D0000F0A8F81C494143A6
:10136000380000F0A3F8069A3304120313432268EE
:10137000002A0CDA3F2122680A40AA4207D1A2685B
:101380001205120D824202D1E268002B1BD0114AD5
:10139000944219D0802252010F49104E0A60104920
:1013A0000A601700B1688F43FBD1C022211D920152
:1013B0000A4321212560A060116021680029FCDA20
:1013C000E36008231360F8BD80229201E4E7C04681
:1013D00040420F0000C0024000E0004000C000405A
:1013E00000F000408023024A9B000343D362704711
:1013F00000800540AA22064B12011A602F220549DF
:10140000DA60054A11605A68002AFCDA7047C04663
:101410000040024000B0FA000060024010B5002811
:1014200001D000F0D9FB10BD1FB5094B1C68002C82
:1014300009D0012200910300524203A90548A047A8
:10144000012004B010BD00F0E1FB2000F9E7C04628
:101450009C0300201D14001001480421014B184773
:101460000002002089140010142310B50100188810
:1014700004331B88984710BD162310B50100188847
:1014800002331B88984710BD70B5040001268900FF
:101490004518AC4201D1300070BD2068FFF7E4FF71
:1014A00001C4431E984140420640F2E7114A936F3F
:1014B0009B0813D210665166002905D0FFE7FFE7AD
:1014C000FFE7516F106F704704B5002801D000206E
:1014D000C04300F0F1FB002104BDC046F0B5146E1E
:1014E000556E576F166FFFF7E5FF14665566576721
:1014F0001667F0BD000000D094464E4A926F9208E5
:10150000624601D230E0C046F0B54A4EB56F6D0874
:10151000FCD3346E756E776F366F00F025F8944605
:10152000444A14665566576716676246F0BDC04662
:101530009446404A926F9208624601D258E0C046F3
:10154000F0B53C4EB56F6D08FCD3346E756E776F99
:10155000366F00F04DF89446364A14665566576764
:1015600016676246F0BDC046002B24DB11D000296F
:101570003EDA00B5C943404200D1013100F038F8ED
:10158000C943404200D10131DB43524200D1013313
:1015900000BD002AEBD1002801D1002905D0002090
:1015A000C90FC90701D1C043410800B500F07CFB59
:1015B0000022002300BD00B500290ADBDB435242B4
:1015C00000D1013300F014F8C943404200D1013189
:1015D00000BDC943404200D10131DB43524200D13A
:1015E000013300F005F8DB43524200D1013300BD66
:1015F000002923D1002B18D1002A0CD0BC460D4F56
:1016000038667A6600210023FFE7FFE7FFE77A6F7D
:10161000386F67467047002801D00748010000B5C1
:1016200000F042FB0022002300BD02000B0000205E
:1016300000217047000000D0FFFFFFFF002B00D00B
:10164000BFE0130C28D1002AE7D080B4114F3966CF
:101650007A66FFE7FFE730B4040C7B6F396F1B0439
:1016600023433B667A66FFE7FFE7FFE7C04684B2A5
:101670007B6F3D6F1B0423433B667A66FFE7FFE702
:10168000C04600232C042D0C7A6F386F0019694175
:10169000B0BC7047000000D0F0B594460025140E91
:1016A00001D112020835140F01D112010435940F33
:1016B00001D192000235D40F01D152000135D40B73
:1016C0000134254F7C66254C3C660E0C93B2FFE737
:1016D000FFE7FFE73C6F6643360C7703BE46734374
:1016E000DF0B5B04C01AB941130C7343DB18C91A32
:1016F000CE086643360CB64493B273431F0F1B01EA
:10170000C01AB941130C73431F0B1B05C01AB94112
:10171000860D8F023E436643360C092D24DB520AA8
:101720007243801A7703460A6643360C16235B1B06
:10173000DE40DF40BF1964466643821B70460435B5
:1017400006330100D940A840C01900D30131A2429C
:1017500006D20023F0BD0000000000D0FFFFFFFF15
:10176000121B0130F3D3F1E709277F1BFE406446CB
:10177000A2B27243801A00D20139220C7243130CB8
:101780001204821A99410B00704604351337010088
:10179000F940A840801900D30131002B02D1A242A8
:1017A0000AD2F0BD013000D30131121BFAD2013B45
:1017B000F8D1A24200D2F0BD013000D30131121B9A
:1017C000F7E7F0B51C0C00D080E00CB400251C0A33
:1017D00004D11B02160E3343120208351C0B04D130
:1017E0001B01160F3343120104359C0B04D19B00DF
:1017F000960F334392000235DC0B02D192185B4105
:1018000001351C00971864410134464F7C66464CF4
:101810003C660E0CFFE7FFE7FFE7C0463C6F664300
:10182000360C7703BE4697B27743C01B00D201390E
:10183000C01B00D201399FB27743C91BC91B170CCB
:1018400077437E04FF0B801BB941CE086643360CFC
:101850000C2D33DBB644120B1F053A431B0B97B21A
:101860007743C01B00D201399FB27743C91B170CC5
:1018700077433E043F0C801BB941860D8F023E43E7
:10188000664329277F1BFE400C3D7746AF40BF19BA
:1018900030BCA2B2ABB272437343801A9941220C9E
:1018A0007243130C1204801A994102000B00013795
:1018B000001BA941F9D2781E0021F0BD0C277F1B27
:1018C000FE4077467F0BAF40FF19E0E700245D1C28
:1018D00007D0144F7D663966FFE7FFE7FFE7FFE7B4
:1018E0003C6F95B29EB265436643401BB141150CF7
:1018F0001E0C6543664336042F0C3E432D04401BEB
:10190000B141994204D202000B0020000021F0BD39
:1019100001D19042F7D3801A994101349942F2D310
:10192000F6E70000000000D0FFFFFFFF132370B5B3
:101930001C780F4D012C0ED100230E499A00013363
:10194000A950202BFAD10B4BAB640B48FFF78CFD51
:101950000A4B186070BD012CF5DD0948FFF78CFDBE
:1019600080220100280000F089F8022CEDD1EAE77E
:1019700010040020851900104C330000B40300202F
:101980005344000007B5604601880A0A0230DF2A86
:10199000FAD1C9B2820804D30288408800041043F7
:1019A00000E00068014A5050039007BD1004002079
:1019B00051434343C9188C46110C83B24B4310B4B6
:1019C000040C614392B280B2504362431C041B0C6E
:1019D000001910BC59411304120CC0185141614444
:1019E00070470000132310B510481C78FFF744FD22
:1019F0000100012C13D10E4C5422200000F03EF8BF
:101A000015230C4A990001336250202BFAD122622F
:101A1000E2610948FFF728FD084B186010BD012C52
:101A2000F7DD8022024800F029F8F2E75346000073
:101A300010050020411A00104C330000B4030020B0
:101A400007B5604601880A0A0230DF2AFAD1C9B216
:101A5000820804D3028840880004104300E0006834
:101A6000014A5050039007BD100500200148042191
:101A7000014B18471002002089140010014B5B68CD
:101A80001847000010020020030010B508001B6872
:101A90001100984710BD0000F8B5437C05000C000C
:101AA0001600002B32D103681100200098472AE06D
:101AB000002929DD631E5B5C0D3B5A425341DBB2BA
:101AC000625C4F1C0A2A0CD1002B0AD1814203DD33
:101AD000091A2B68201898470E4802212B6898474E
:101AE000380039008E42E3DC864203DD311A2B6870
:101AF00020189847002E06DDA419013C23780D3BE1
:101B00005A4253412B74F8BD2B7CD9E700210800C1
:101B1000E8E7C046A41D0010D02337B5084D1B06CA
:101B200001A928001C6800F0CFF8002807D1019B0C
:101B300064B29C4203D0280000F0CEF801203EBDE4
:101B40002002002010B5024800F0A6F810BDC046E3
:101B500020020020F0B585B007000C0000921D00A7
:101B6000FFF7DAFF0190631C03D1380000F05EF844
:101B70000400154E002D00D1144E154B1D68002D8C
:101B800009D1019B002B01D0FFF7DCFF601E8441CF
:101B9000E0B205B0F0BD2B68002B13D00D4B1B68D5
:101BA000002B01D0AB420DD1220039002800B047F4
:101BB000009B002B06D002ABD91D0A23012228006E
:101BC0000B70B047ED68DAE7891A0010991A001017
:101BD000940300209803002013B56B460400D81D21
:101BE000002301211A000470FFF7B4FF200016BD86
:101BF000054B10B51C68002C00D110BD6368002B8C
:101C000000D09847E468F6E79403002070B505001B
:101C100000F00CF804000100002301222800FFF767
:101C200099FFFFF7E5FF200070BD000010B58307A6
:101C300027D00378002B26D00300032102E01A7876
:101C4000002A1CD001330B42F9D119680F4A104CFD
:101C50008A188A4322420FD1043319680B4A8A1822
:101C60008A43224208D104331968084A8A188A43F1
:101C70002242F1D000E001331A78002AFBD1181A71
:101C800010BD0300E1E70020FAE7C046FFFEFEFEBC
:101C900080808080F8B5C04601B40248844601BC0B
:101CA000604700BF4501002001B40248844601BCE2
:101CB000604700BF6D01002001B40248844601BCAA
:101CC000604700BF6D01002001B40248844601BC9A
:101CD000604700BF0301002001B40248844601BCF4
:081CE000604700BFC1000020B5
:101CE800140000001500000013000000200300008D
:101CF8002C010000486172647761726520616C6133
:101D0800726D20256420616C726561647920636C52
:101D180061696D65640048617264206173736572FE
:101D280074000A2A2A2A2050414E4943202A2A2A86
:101D38000A0006005250BBFF3CB68D1D001006007D
:101D480052503ABCA911831D001006005250E1827E
:101D5800887F751D001006005250D3F075426A1D29
:101D680000104D696E53697A6552656C00626F6F39
:101D780074325F7732357130383000302E310031AF
:101D88002E332E30007069636F00646D3532340075
:101D98004D61722032302032303232000D0A00009C
:101DA800B4020010A80200109C0200103A1D001096
:101DB80090020010461D0010521D00105E1D0010FC
:101DC800D02330B5002400211B061C570568EFF30B
:101DD800108372B62A68002AFCD0BFF35F8F05799A
:101DE80002687F2D06D90471BFF35F8F116083F3FA
:101DF800108830BDBFF35F8F116083F3108820BF58
:101E0800E4E7030010B50068EFF3108472B60268C7
:101E1800002AFCD0BFF35F8F04229A56002A0CDAFE
:101E2800D0220120120612681A711B68BFF35F8F57
:101E380000221A6084F3108810BD081EF5D00A60CD
:101E48000020F2E70168EFF3108372B60A68002AEF
:101E5800FCD0BFF35F8FFF2202710268BFF35F8F70
:101E68000021116083F3108840BF70477047C04657
:101E7800F81C0010E81C0010B0030020EC1C001037
:101E8800F01C0010F41C001010000000A401002039
:101E98000000000040020020CD03002000000000E8
:101EA80000000000DD03002000000000000000002A
:101EB8001000000000000000000001000000000009
:101EC8000000000000000200000000000000000008
:101ED8000000030000000000000000000000FF00F8
:101EE8000000000000B5486801318E460047704682
:101EF80009380149884700BD8D1200100000000014
:101F0800503300004C3300005433000052330000BB
:101F18004D5300004D43000053340000433400008B
:101F280000000000000000006D1A00105914001095
:0C1F38002D190010E519001039030010ED
:04000005100001E9FD
:00000001FF
